{
  "contractName": "CertificateRegistry",
  "abi": [
    {
      "inputs": [
        {
          "internalType": "address",
          "name": "initialOwner",
          "type": "address"
        }
      ],
      "stateMutability": "nonpayable",
      "type": "constructor"
    },
    {
      "inputs": [
        {
          "internalType": "address",
          "name": "owner",
          "type": "address"
        }
      ],
      "name": "OwnableInvalidOwner",
      "type": "error"
    },
    {
      "inputs": [
        {
          "internalType": "address",
          "name": "account",
          "type": "address"
        }
      ],
      "name": "OwnableUnauthorizedAccount",
      "type": "error"
    },
    {
      "anonymous": false,
      "inputs": [
        {
          "indexed": false,
          "internalType": "string",
          "name": "certificateId",
          "type": "string"
        },
        {
          "indexed": false,
          "internalType": "string",
          "name": "cid",
          "type": "string"
        },
        {
          "indexed": false,
          "internalType": "address",
          "name": "issuer",
          "type": "address"
        }
      ],
      "name": "CertificateIssued",
      "type": "event"
    },
    {
      "anonymous": false,
      "inputs": [
        {
          "indexed": false,
          "internalType": "string",
          "name": "certificateId",
          "type": "string"
        }
      ],
      "name": "CertificateRevoked",
      "type": "event"
    },
    {
      "anonymous": false,
      "inputs": [
        {
          "indexed": true,
          "internalType": "address",
          "name": "previousOwner",
          "type": "address"
        },
        {
          "indexed": true,
          "internalType": "address",
          "name": "newOwner",
          "type": "address"
        }
      ],
      "name": "OwnershipTransferred",
      "type": "event"
    },
    {
      "inputs": [
        {
          "internalType": "string",
          "name": "",
          "type": "string"
        }
      ],
      "name": "certificates",
      "outputs": [
        {
          "internalType": "string",
          "name": "cid",
          "type": "string"
        },
        {
          "internalType": "address",
          "name": "issuer",
          "type": "address"
        },
        {
          "internalType": "bool",
          "name": "revoked",
          "type": "bool"
        },
        {
          "internalType": "uint256",
          "name": "issuedAt",
          "type": "uint256"
        },
        {
          "internalType": "string",
          "name": "uid",
          "type": "string"
        },
        {
          "internalType": "string",
          "name": "candidateName",
          "type": "string"
        },
        {
          "internalType": "string",
          "name": "courseName",
          "type": "string"
        },
        {
          "internalType": "string",
          "name": "organization",
          "type": "string"
        }
      ],
      "stateMutability": "view",
      "type": "function",
      "constant": true
    },
    {
      "inputs": [
        {
          "internalType": "address",
          "name": "",
          "type": "address"
        }
      ],
      "name": "isIssuer",
      "outputs": [
        {
          "internalType": "bool",
          "name": "",
          "type": "bool"
        }
      ],
      "stateMutability": "view",
      "type": "function",
      "constant": true
    },
    {
      "inputs": [],
      "name": "owner",
      "outputs": [
        {
          "internalType": "address",
          "name": "",
          "type": "address"
        }
      ],
      "stateMutability": "view",
      "type": "function",
      "constant": true
    },
    {
      "inputs": [],
      "name": "renounceOwnership",
      "outputs": [],
      "stateMutability": "nonpayable",
      "type": "function"
    },
    {
      "inputs": [
        {
          "internalType": "address",
          "name": "newOwner",
          "type": "address"
        }
      ],
      "name": "transferOwnership",
      "outputs": [],
      "stateMutability": "nonpayable",
      "type": "function"
    },
    {
      "inputs": [
        {
          "internalType": "string",
          "name": "certificateId",
          "type": "string"
        },
        {
          "internalType": "string",
          "name": "cid",
          "type": "string"
        },
        {
          "internalType": "string",
          "name": "uid",
          "type": "string"
        },
        {
          "internalType": "string",
          "name": "candidateName",
          "type": "string"
        },
        {
          "internalType": "string",
          "name": "courseName",
          "type": "string"
        },
        {
          "internalType": "string",
          "name": "organization",
          "type": "string"
        }
      ],
      "name": "issueCertificate",
      "outputs": [],
      "stateMutability": "nonpayable",
      "type": "function"
    },
    {
      "inputs": [
        {
          "internalType": "string",
          "name": "certificateId",
          "type": "string"
        }
      ],
      "name": "revokeCertificate",
      "outputs": [],
      "stateMutability": "nonpayable",
      "type": "function"
    },
    {
      "inputs": [
        {
          "internalType": "string",
          "name": "certificateId",
          "type": "string"
        }
      ],
      "name": "verifyCertificate",
      "outputs": [
        {
          "internalType": "bool",
          "name": "exists",
          "type": "bool"
        },
        {
          "internalType": "string",
          "name": "uid",
          "type": "string"
        },
        {
          "internalType": "string",
          "name": "candidateName",
          "type": "string"
        },
        {
          "internalType": "string",
          "name": "courseName",
          "type": "string"
        },
        {
          "internalType": "string",
          "name": "organization",
          "type": "string"
        },
        {
          "internalType": "string",
          "name": "cid",
          "type": "string"
        },
        {
          "internalType": "address",
          "name": "issuer",
          "type": "address"
        },
        {
          "internalType": "bool",
          "name": "revoked",
          "type": "bool"
        },
        {
          "internalType": "uint256",
          "name": "issuedAt",
          "type": "uint256"
        }
      ],
      "stateMutability": "view",
      "type": "function",
      "constant": true
    }
  ],
  "bytecode": "0x608060405234801562000010575f80fd5b5060405162001a9738038062001a9783398181016040528101906200003691906200023e565b805f73ffffffffffffffffffffffffffffffffffffffff168173ffffffffffffffffffffffffffffffffffffffff1603620000aa575f6040517f1e4fbdf7000000000000000000000000000000000000000000000000000000008152600401620000a191906200027f565b60405180910390fd5b620000bb816200011860201b60201c565b50600160025f8373ffffffffffffffffffffffffffffffffffffffff1673ffffffffffffffffffffffffffffffffffffffff1681526020019081526020015f205f6101000a81548160ff021916908315150217905550506200029a565b5f805f9054906101000a900473ffffffffffffffffffffffffffffffffffffffff169050815f806101000a81548173ffffffffffffffffffffffffffffffffffffffff021916908373ffffffffffffffffffffffffffffffffffffffff1602179055508173ffffffffffffffffffffffffffffffffffffffff168173ffffffffffffffffffffffffffffffffffffffff167f8be0079c531659141344cd1fd0a4f28419497f9722a3daafe3b4186f6b6457e060405160405180910390a35050565b5f80fd5b5f73ffffffffffffffffffffffffffffffffffffffff82169050919050565b5f6200020882620001dd565b9050919050565b6200021a81620001fc565b811462000225575f80fd5b50565b5f8151905062000238816200020f565b92915050565b5f60208284031215620002565762000255620001d9565b5b5f620002658482850162000228565b91505092915050565b6200027981620001fc565b82525050565b5f602082019050620002945f8301846200026e565b92915050565b6117ef80620002a85f395ff3fe608060405234801561000f575f80fd5b5060043610610086575f3560e01c80638da5cb5b116100595780638da5cb5b146101185780638f2b91ea1461013657806394973c971461016d578063f2fde38b1461018957610086565b8063142e15421461008a578063715018a6146100a6578063877b9a67146100b05780638b23d875146100e0575b5f80fd5b6100a4600480360381019061009f9190610f36565b6101a5565b005b6100ae6102c6565b005b6100ca60048036038101906100c59190610fd7565b6102d9565b6040516100d7919061101c565b60405180910390f35b6100fa60048036038101906100f59190610f36565b6102f6565b60405161010f999897969594939291906110d6565b60405180910390f35b6101206106c9565b60405161012d9190611184565b60405180910390f35b610150600480360381019061014b9190610f36565b6106f0565b60405161016498979695949392919061119d565b60405180910390f35b6101876004803603810190610182919061123c565b610a16565b005b6101a3600480360381019061019e9190610fd7565b610c16565b005b3373ffffffffffffffffffffffffffffffffffffffff166001826040516101cc91906113a7565b90815260200160405180910390206001015f9054906101000a900473ffffffffffffffffffffffffffffffffffffffff1673ffffffffffffffffffffffffffffffffffffffff1614610253576040517f08c379a000000000000000000000000000000000000000000000000000000000815260040161024a90611407565b60405180910390fd5b6001808260405161026491906113a7565b908152602001604051809103902060010160146101000a81548160ff0219169083151502179055507f266095b5af7e2323760fef151f1d78896740cd2cc1b73a6357ff9e4c3fdae740816040516102bb9190611425565b60405180910390a150565b6102ce610c9a565b6102d75f610d21565b565b6002602052805f5260405f205f915054906101000a900460ff1681565b5f60608060608060605f805f8060018b60405161031391906113a7565b9081526020016040518091039020604051806101000160405290815f8201805461033c90611472565b80601f016020809104026020016040519081016040528092919081815260200182805461036890611472565b80156103b35780601f1061038a576101008083540402835291602001916103b3565b820191905f5260205f20905b81548152906001019060200180831161039657829003601f168201915b50505050508152602001600182015f9054906101000a900473ffffffffffffffffffffffffffffffffffffffff1673ffffffffffffffffffffffffffffffffffffffff1673ffffffffffffffffffffffffffffffffffffffff1681526020016001820160149054906101000a900460ff161515151581526020016002820154815260200160038201805461044690611472565b80601f016020809104026020016040519081016040528092919081815260200182805461047290611472565b80156104bd5780601f10610494576101008083540402835291602001916104bd565b820191905f5260205f20905b8154815290600101906020018083116104a057829003601f168201915b505050505081526020016004820180546104d690611472565b80601f016020809104026020016040519081016040528092919081815260200182805461050290611472565b801561054d5780601f106105245761010080835404028352916020019161054d565b820191905f5260205f20905b81548152906001019060200180831161053057829003601f168201915b5050505050815260200160058201805461056690611472565b80601f016020809104026020016040519081016040528092919081815260200182805461059290611472565b80156105dd5780601f106105b4576101008083540402835291602001916105dd565b820191905f5260205f20905b8154815290600101906020018083116105c057829003601f168201915b505050505081526020016006820180546105f690611472565b80601f016020809104026020016040519081016040528092919081815260200182805461062290611472565b801561066d5780601f106106445761010080835404028352916020019161066d565b820191905f5260205f20905b81548152906001019060200180831161065057829003601f168201915b50505050508152505090505f815f0151511199508981608001518260a001518360c001518460e00151855f0151866020015187604001518860600151995099509950995099509950995099509950509193959799909294969850565b5f805f9054906101000a900473ffffffffffffffffffffffffffffffffffffffff16905090565b6001818051602081018201805184825260208301602085012081835280955050505050505f91509050805f01805461072790611472565b80601f016020809104026020016040519081016040528092919081815260200182805461075390611472565b801561079e5780601f106107755761010080835404028352916020019161079e565b820191905f5260205f20905b81548152906001019060200180831161078157829003601f168201915b505050505090806001015f9054906101000a900473ffffffffffffffffffffffffffffffffffffffff16908060010160149054906101000a900460ff16908060020154908060030180546107f190611472565b80601f016020809104026020016040519081016040528092919081815260200182805461081d90611472565b80156108685780601f1061083f57610100808354040283529160200191610868565b820191905f5260205f20905b81548152906001019060200180831161084b57829003601f168201915b50505050509080600401805461087d90611472565b80601f01602080910402602001604051908101604052809291908181526020018280546108a990611472565b80156108f45780601f106108cb576101008083540402835291602001916108f4565b820191905f5260205f20905b8154815290600101906020018083116108d757829003601f168201915b50505050509080600501805461090990611472565b80601f016020809104026020016040519081016040528092919081815260200182805461093590611472565b80156109805780601f1061095757610100808354040283529160200191610980565b820191905f5260205f20905b81548152906001019060200180831161096357829003601f168201915b50505050509080600601805461099590611472565b80601f01602080910402602001604051908101604052809291908181526020018280546109c190611472565b8015610a0c5780601f106109e357610100808354040283529160200191610a0c565b820191905f5260205f20905b8154815290600101906020018083116109ef57829003601f168201915b5050505050905088565b5f600187604051610a2791906113a7565b90815260200160405180910390205f018054610a4290611472565b905014610a84576040517f08c379a0000000000000000000000000000000000000000000000000000000008152600401610a7b906114ec565b60405180910390fd5b6040518061010001604052808681526020013373ffffffffffffffffffffffffffffffffffffffff1681526020015f1515815260200142815260200185815260200184815260200183815260200182815250600187604051610ae691906113a7565b90815260200160405180910390205f820151815f019081610b0791906116a7565b506020820151816001015f6101000a81548173ffffffffffffffffffffffffffffffffffffffff021916908373ffffffffffffffffffffffffffffffffffffffff16021790555060408201518160010160146101000a81548160ff021916908315150217905550606082015181600201556080820151816003019081610b8d91906116a7565b5060a0820151816004019081610ba391906116a7565b5060c0820151816005019081610bb991906116a7565b5060e0820151816006019081610bcf91906116a7565b509050507f03f262da71aacb4fd3ac953d335e55d4e2ea91176b1a20485c500341130b10e0868633604051610c0693929190611776565b60405180910390a1505050505050565b610c1e610c9a565b5f73ffffffffffffffffffffffffffffffffffffffff168173ffffffffffffffffffffffffffffffffffffffff1603610c8e575f6040517f1e4fbdf7000000000000000000000000000000000000000000000000000000008152600401610c859190611184565b60405180910390fd5b610c9781610d21565b50565b610ca2610de2565b73ffffffffffffffffffffffffffffffffffffffff16610cc06106c9565b73ffffffffffffffffffffffffffffffffffffffff1614610d1f57610ce3610de2565b6040517f118cdaa7000000000000000000000000000000000000000000000000000000008152600401610d169190611184565b60405180910390fd5b565b5f805f9054906101000a900473ffffffffffffffffffffffffffffffffffffffff169050815f806101000a81548173ffffffffffffffffffffffffffffffffffffffff021916908373ffffffffffffffffffffffffffffffffffffffff1602179055508173ffffffffffffffffffffffffffffffffffffffff168173ffffffffffffffffffffffffffffffffffffffff167f8be0079c531659141344cd1fd0a4f28419497f9722a3daafe3b4186f6b6457e060405160405180910390a35050565b5f33905090565b5f604051905090565b5f80fd5b5f80fd5b5f80fd5b5f80fd5b5f601f19601f8301169050919050565b7f4e487b71000000000000000000000000000000000000000000000000000000005f52604160045260245ffd5b610e4882610e02565b810181811067ffffffffffffffff82111715610e6757610e66610e12565b5b80604052505050565b5f610e79610de9565b9050610e858282610e3f565b919050565b5f67ffffffffffffffff821115610ea457610ea3610e12565b5b610ead82610e02565b9050602081019050919050565b828183375f83830152505050565b5f610eda610ed584610e8a565b610e70565b905082815260208101848484011115610ef657610ef5610dfe565b5b610f01848285610eba565b509392505050565b5f82601f830112610f1d57610f1c610dfa565b5b8135610f2d848260208601610ec8565b91505092915050565b5f60208284031215610f4b57610f4a610df2565b5b5f82013567ffffffffffffffff811115610f6857610f67610df6565b5b610f7484828501610f09565b91505092915050565b5f73ffffffffffffffffffffffffffffffffffffffff82169050919050565b5f610fa682610f7d565b9050919050565b610fb681610f9c565b8114610fc0575f80fd5b50565b5f81359050610fd181610fad565b92915050565b5f60208284031215610fec57610feb610df2565b5b5f610ff984828501610fc3565b91505092915050565b5f8115159050919050565b61101681611002565b82525050565b5f60208201905061102f5f83018461100d565b92915050565b5f81519050919050565b5f82825260208201905092915050565b5f5b8381101561106c578082015181840152602081019050611051565b5f8484015250505050565b5f61108182611035565b61108b818561103f565b935061109b81856020860161104f565b6110a481610e02565b840191505092915050565b6110b881610f9c565b82525050565b5f819050919050565b6110d0816110be565b82525050565b5f610120820190506110ea5f83018c61100d565b81810360208301526110fc818b611077565b90508181036040830152611110818a611077565b905081810360608301526111248189611077565b905081810360808301526111388188611077565b905081810360a083015261114c8187611077565b905061115b60c08301866110af565b61116860e083018561100d565b6111766101008301846110c7565b9a9950505050505050505050565b5f6020820190506111975f8301846110af565b92915050565b5f610100820190508181035f8301526111b6818b611077565b90506111c5602083018a6110af565b6111d2604083018961100d565b6111df60608301886110c7565b81810360808301526111f18187611077565b905081810360a08301526112058186611077565b905081810360c08301526112198185611077565b905081810360e083015261122d8184611077565b90509998505050505050505050565b5f805f805f8060c0878903121561125657611255610df2565b5b5f87013567ffffffffffffffff81111561127357611272610df6565b5b61127f89828a01610f09565b965050602087013567ffffffffffffffff8111156112a05761129f610df6565b5b6112ac89828a01610f09565b955050604087013567ffffffffffffffff8111156112cd576112cc610df6565b5b6112d989828a01610f09565b945050606087013567ffffffffffffffff8111156112fa576112f9610df6565b5b61130689828a01610f09565b935050608087013567ffffffffffffffff81111561132757611326610df6565b5b61133389828a01610f09565b92505060a087013567ffffffffffffffff81111561135457611353610df6565b5b61136089828a01610f09565b9150509295509295509295565b5f81905092915050565b5f61138182611035565b61138b818561136d565b935061139b81856020860161104f565b80840191505092915050565b5f6113b28284611377565b915081905092915050565b7f4f6e6c79206973737565722063616e207265766f6b65000000000000000000005f82015250565b5f6113f160168361103f565b91506113fc826113bd565b602082019050919050565b5f6020820190508181035f83015261141e816113e5565b9050919050565b5f6020820190508181035f83015261143d8184611077565b905092915050565b7f4e487b71000000000000000000000000000000000000000000000000000000005f52602260045260245ffd5b5f600282049050600182168061148957607f821691505b60208210810361149c5761149b611445565b5b50919050565b7f436572746966696361746520616c7265616479206578697374730000000000005f82015250565b5f6114d6601a8361103f565b91506114e1826114a2565b602082019050919050565b5f6020820190508181035f830152611503816114ca565b9050919050565b5f819050815f5260205f209050919050565b5f6020601f8301049050919050565b5f82821b905092915050565b5f600883026115667fffffffffffffffffffffffffffffffffffffffffffffffffffffffffffffffff8261152b565b611570868361152b565b95508019841693508086168417925050509392505050565b5f819050919050565b5f6115ab6115a66115a1846110be565b611588565b6110be565b9050919050565b5f819050919050565b6115c483611591565b6115d86115d0826115b2565b848454611537565b825550505050565b5f90565b6115ec6115e0565b6115f78184846115bb565b505050565b5b8181101561161a5761160f5f826115e4565b6001810190506115fd565b5050565b601f82111561165f576116308161150a565b6116398461151c565b81016020851015611648578190505b61165c6116548561151c565b8301826115fc565b50505b505050565b5f82821c905092915050565b5f61167f5f1984600802611664565b1980831691505092915050565b5f6116978383611670565b9150826002028217905092915050565b6116b082611035565b67ffffffffffffffff8111156116c9576116c8610e12565b5b6116d38254611472565b6116de82828561161e565b5f60209050601f83116001811461170f575f84156116fd578287015190505b611707858261168c565b86555061176e565b601f19841661171d8661150a565b5f5b828110156117445784890151825560018201915060208501945060208101905061171f565b86831015611761578489015161175d601f891682611670565b8355505b6001600288020188555050505b505050505050565b5f6060820190508181035f83015261178e8186611077565b905081810360208301526117a28185611077565b90506117b160408301846110af565b94935050505056fea26469706673582212203c18d8e918ceff13e8a0b6974678096c674cb75e7a935242b07b889603691a2664736f6c63430008150033",
  "immutableReferences": {},
  "source": "// SPDX-License-Identifier: MIT\npragma solidity ^0.8.0;\n\nimport \"@openzeppelin/contracts/access/Ownable.sol\";\n\ncontract CertificateRegistry is Ownable {\n    struct Certificate {\n        string cid;\n        address issuer;\n        bool revoked;\n        uint256 issuedAt;\n        string uid;\n        string candidateName;\n        string courseName;\n        string organization;\n    }\n\n    mapping(string => Certificate) public certificates;\n    mapping(address => bool) public isIssuer;\n\n    event CertificateIssued(string certificateId, string cid, address issuer);\n    event CertificateRevoked(string certificateId);\n\n    // Constructor to initialize owner and add initial issuer\n    constructor(address initialOwner) Ownable(initialOwner) {\n        isIssuer[initialOwner] = true;\n    }\n\n    // Issue a new certificate\n    function issueCertificate(\n        string memory certificateId,\n        string memory cid,\n        string memory uid,\n        string memory candidateName,\n        string memory courseName,\n        string memory organization\n    ) public {\n        require(bytes(certificates[certificateId].cid).length == 0, \"Certificate already exists\");\n\n        certificates[certificateId] = Certificate({\n            cid: cid,\n            issuer: msg.sender,\n            revoked: false,\n            issuedAt: block.timestamp,\n            uid: uid,\n            candidateName: candidateName,\n            courseName: courseName,\n            organization: organization\n        });\n\n        emit CertificateIssued(certificateId, cid, msg.sender);\n    }\n\n    // Revoke an existing certificate\n    function revokeCertificate(string memory certificateId) public {\n        require(certificates[certificateId].issuer == msg.sender, \"Only issuer can revoke\");\n        certificates[certificateId].revoked = true;\n        emit CertificateRevoked(certificateId);\n    }\n\n    // Verify a certificate\n    function verifyCertificate(string memory certificateId) public view returns (\n        bool exists,\n        string memory uid,\n        string memory candidateName,\n        string memory courseName,\n        string memory organization,\n        string memory cid,\n        address issuer,\n        bool revoked,\n        uint256 issuedAt\n    ) {\n        Certificate memory cert = certificates[certificateId];\n        exists = bytes(cert.cid).length > 0;\n\n        return (\n            exists,\n            cert.uid,\n            cert.candidateName,\n            cert.courseName,\n            cert.organization,\n            cert.cid,\n            cert.issuer,\n            cert.revoked,\n            cert.issuedAt\n        );\n    }\n}\n",
  "sourcePath": "/home/mostafa/Documents/the_project/Certificate-Verification-Using-Block-Chain-Technology/contracts/CertificateRegistry.sol",
  "compiler": {
    "name": "solc",
    "version": "0.8.21+commit.d9974bed.Emscripten.clang"
  },
  "schemaVersion": "3.4.16",
  "updatedAt": "2025-07-05T19:51:31.898Z",
  "networkType": "ethereum",
  "devdoc": {
    "errors": {
      "OwnableInvalidOwner(address)": [
        {
          "details": "The owner is not a valid owner account. (eg. `address(0)`)"
        }
      ],
      "OwnableUnauthorizedAccount(address)": [
        {
          "details": "The caller account is not authorized to perform an operation."
        }
      ]
    },
    "kind": "dev",
    "methods": {
      "owner()": {
        "details": "Returns the address of the current owner."
      },
      "renounceOwnership()": {
        "details": "Leaves the contract without owner. It will not be possible to call `onlyOwner` functions. Can only be called by the current owner. NOTE: Renouncing ownership will leave the contract without an owner, thereby disabling any functionality that is only available to the owner."
      },
      "transferOwnership(address)": {
        "details": "Transfers ownership of the contract to a new account (`newOwner`). Can only be called by the current owner."
      }
    },
    "version": 1
  },
  "userdoc": {
    "kind": "user",
    "methods": {},
    "version": 1
  }
}