{
  "contractName": "CertificateRegistry",
  "abi": [
    {
      "inputs": [
        {
          "internalType": "address",
          "name": "initialOwner",
          "type": "address"
        }
      ],
      "stateMutability": "nonpayable",
      "type": "constructor"
    },
    {
      "inputs": [
        {
          "internalType": "address",
          "name": "owner",
          "type": "address"
        }
      ],
      "name": "OwnableInvalidOwner",
      "type": "error"
    },
    {
      "inputs": [
        {
          "internalType": "address",
          "name": "account",
          "type": "address"
        }
      ],
      "name": "OwnableUnauthorizedAccount",
      "type": "error"
    },
    {
      "anonymous": false,
      "inputs": [
        {
          "indexed": false,
          "internalType": "string",
          "name": "certificateId",
          "type": "string"
        },
        {
          "indexed": false,
          "internalType": "string",
          "name": "cid",
          "type": "string"
        },
        {
          "indexed": false,
          "internalType": "address",
          "name": "issuer",
          "type": "address"
        }
      ],
      "name": "CertificateIssued",
      "type": "event"
    },
    {
      "anonymous": false,
      "inputs": [
        {
          "indexed": false,
          "internalType": "string",
          "name": "certificateId",
          "type": "string"
        }
      ],
      "name": "CertificateRevoked",
      "type": "event"
    },
    {
      "anonymous": false,
      "inputs": [
        {
          "indexed": false,
          "internalType": "address",
          "name": "issuer",
          "type": "address"
        }
      ],
      "name": "IssuerAdded",
      "type": "event"
    },
    {
      "anonymous": false,
      "inputs": [
        {
          "indexed": false,
          "internalType": "address",
          "name": "issuer",
          "type": "address"
        }
      ],
      "name": "IssuerRemoved",
      "type": "event"
    },
    {
      "anonymous": false,
      "inputs": [
        {
          "indexed": true,
          "internalType": "address",
          "name": "previousOwner",
          "type": "address"
        },
        {
          "indexed": true,
          "internalType": "address",
          "name": "newOwner",
          "type": "address"
        }
      ],
      "name": "OwnershipTransferred",
      "type": "event"
    },
    {
      "inputs": [
        {
          "internalType": "string",
          "name": "",
          "type": "string"
        }
      ],
      "name": "certificates",
      "outputs": [
        {
          "internalType": "string",
          "name": "cid",
          "type": "string"
        },
        {
          "internalType": "address",
          "name": "issuer",
          "type": "address"
        },
        {
          "internalType": "bool",
          "name": "revoked",
          "type": "bool"
        },
        {
          "internalType": "uint256",
          "name": "issuedAt",
          "type": "uint256"
        },
        {
          "internalType": "string",
          "name": "uid",
          "type": "string"
        },
        {
          "internalType": "string",
          "name": "candidateName",
          "type": "string"
        },
        {
          "internalType": "string",
          "name": "courseName",
          "type": "string"
        },
        {
          "internalType": "string",
          "name": "organization",
          "type": "string"
        }
      ],
      "stateMutability": "view",
      "type": "function",
      "constant": true
    },
    {
      "inputs": [
        {
          "internalType": "address",
          "name": "",
          "type": "address"
        }
      ],
      "name": "isIssuer",
      "outputs": [
        {
          "internalType": "bool",
          "name": "",
          "type": "bool"
        }
      ],
      "stateMutability": "view",
      "type": "function",
      "constant": true
    },
    {
      "inputs": [],
      "name": "owner",
      "outputs": [
        {
          "internalType": "address",
          "name": "",
          "type": "address"
        }
      ],
      "stateMutability": "view",
      "type": "function",
      "constant": true
    },
    {
      "inputs": [],
      "name": "renounceOwnership",
      "outputs": [],
      "stateMutability": "nonpayable",
      "type": "function"
    },
    {
      "inputs": [
        {
          "internalType": "address",
          "name": "newOwner",
          "type": "address"
        }
      ],
      "name": "transferOwnership",
      "outputs": [],
      "stateMutability": "nonpayable",
      "type": "function"
    },
    {
      "inputs": [
        {
          "internalType": "address",
          "name": "newIssuer",
          "type": "address"
        }
      ],
      "name": "addIssuer",
      "outputs": [],
      "stateMutability": "nonpayable",
      "type": "function"
    },
    {
      "inputs": [
        {
          "internalType": "address",
          "name": "issuer",
          "type": "address"
        }
      ],
      "name": "removeIssuer",
      "outputs": [],
      "stateMutability": "nonpayable",
      "type": "function"
    },
    {
      "inputs": [
        {
          "internalType": "string",
          "name": "certificateId",
          "type": "string"
        },
        {
          "internalType": "string",
          "name": "cid",
          "type": "string"
        },
        {
          "internalType": "string",
          "name": "uid",
          "type": "string"
        },
        {
          "internalType": "string",
          "name": "candidateName",
          "type": "string"
        },
        {
          "internalType": "string",
          "name": "courseName",
          "type": "string"
        },
        {
          "internalType": "string",
          "name": "organization",
          "type": "string"
        }
      ],
      "name": "issueCertificate",
      "outputs": [],
      "stateMutability": "nonpayable",
      "type": "function"
    },
    {
      "inputs": [
        {
          "internalType": "string",
          "name": "certificateId",
          "type": "string"
        }
      ],
      "name": "revokeCertificate",
      "outputs": [],
      "stateMutability": "nonpayable",
      "type": "function"
    },
    {
      "inputs": [
        {
          "internalType": "string",
          "name": "certificateId",
          "type": "string"
        }
      ],
      "name": "verifyCertificate",
      "outputs": [
        {
          "internalType": "bool",
          "name": "exists",
          "type": "bool"
        },
        {
          "internalType": "string",
          "name": "uid",
          "type": "string"
        },
        {
          "internalType": "string",
          "name": "candidateName",
          "type": "string"
        },
        {
          "internalType": "string",
          "name": "courseName",
          "type": "string"
        },
        {
          "internalType": "string",
          "name": "organization",
          "type": "string"
        },
        {
          "internalType": "string",
          "name": "cid",
          "type": "string"
        },
        {
          "internalType": "address",
          "name": "issuer",
          "type": "address"
        },
        {
          "internalType": "bool",
          "name": "revoked",
          "type": "bool"
        },
        {
          "internalType": "uint256",
          "name": "issuedAt",
          "type": "uint256"
        }
      ],
      "stateMutability": "view",
      "type": "function",
      "constant": true
    }
  ],
  "bytecode": "0x608060405234801562000010575f80fd5b5060405162001f6f38038062001f6f83398181016040528101906200003691906200023e565b805f73ffffffffffffffffffffffffffffffffffffffff168173ffffffffffffffffffffffffffffffffffffffff1603620000aa575f6040517f1e4fbdf7000000000000000000000000000000000000000000000000000000008152600401620000a191906200027f565b60405180910390fd5b620000bb816200011860201b60201c565b50600160025f8373ffffffffffffffffffffffffffffffffffffffff1673ffffffffffffffffffffffffffffffffffffffff1681526020019081526020015f205f6101000a81548160ff021916908315150217905550506200029a565b5f805f9054906101000a900473ffffffffffffffffffffffffffffffffffffffff169050815f806101000a81548173ffffffffffffffffffffffffffffffffffffffff021916908373ffffffffffffffffffffffffffffffffffffffff1602179055508173ffffffffffffffffffffffffffffffffffffffff168173ffffffffffffffffffffffffffffffffffffffff167f8be0079c531659141344cd1fd0a4f28419497f9722a3daafe3b4186f6b6457e060405160405180910390a35050565b5f80fd5b5f73ffffffffffffffffffffffffffffffffffffffff82169050919050565b5f6200020882620001dd565b9050919050565b6200021a81620001fc565b811462000225575f80fd5b50565b5f8151905062000238816200020f565b92915050565b5f60208284031215620002565762000255620001d9565b5b5f620002658482850162000228565b91505092915050565b6200027981620001fc565b82525050565b5f602082019050620002945f8301846200026e565b92915050565b611cc780620002a85f395ff3fe608060405234801561000f575f80fd5b506004361061009c575f3560e01c80638b23d875116100645780638b23d8751461012e5780638da5cb5b146101665780638f2b91ea1461018457806394973c97146101bb578063f2fde38b146101d75761009c565b8063142e1542146100a057806320694db0146100bc57806347bc7093146100d8578063715018a6146100f4578063877b9a67146100fe575b5f80fd5b6100ba60048036038101906100b591906112d6565b6101f3565b005b6100d660048036038101906100d19190611377565b61039d565b005b6100f260048036038101906100ed9190611377565b6104be565b005b6100fc6105dd565b005b61011860048036038101906101139190611377565b6105f0565b60405161012591906113bc565b60405180910390f35b610148600480360381019061014391906112d6565b61060d565b60405161015d99989796959493929190611476565b60405180910390f35b61016e6109e0565b60405161017b9190611524565b60405180910390f35b61019e600480360381019061019991906112d6565b610a07565b6040516101b298979695949392919061153d565b60405180910390f35b6101d560048036038101906101d091906115dc565b610d2d565b005b6101f160048036038101906101ec9190611377565b610fb6565b005b60025f3373ffffffffffffffffffffffffffffffffffffffff1673ffffffffffffffffffffffffffffffffffffffff1681526020019081526020015f205f9054906101000a900460ff1661027c576040517f08c379a000000000000000000000000000000000000000000000000000000000815260040161027390611757565b60405180910390fd5b3373ffffffffffffffffffffffffffffffffffffffff166001826040516102a391906117af565b90815260200160405180910390206001015f9054906101000a900473ffffffffffffffffffffffffffffffffffffffff1673ffffffffffffffffffffffffffffffffffffffff161461032a576040517f08c379a00000000000000000000000000000000000000000000000000000000081526004016103219061180f565b60405180910390fd5b6001808260405161033b91906117af565b908152602001604051809103902060010160146101000a81548160ff0219169083151502179055507f266095b5af7e2323760fef151f1d78896740cd2cc1b73a6357ff9e4c3fdae74081604051610392919061182d565b60405180910390a150565b6103a561103a565b60025f8273ffffffffffffffffffffffffffffffffffffffff1673ffffffffffffffffffffffffffffffffffffffff1681526020019081526020015f205f9054906101000a900460ff161561042f576040517f08c379a000000000000000000000000000000000000000000000000000000000815260040161042690611897565b60405180910390fd5b600160025f8373ffffffffffffffffffffffffffffffffffffffff1673ffffffffffffffffffffffffffffffffffffffff1681526020019081526020015f205f6101000a81548160ff0219169083151502179055507f05e7c881d716bee8cb7ed92293133ba156704252439e5c502c277448f04e20c2816040516104b39190611524565b60405180910390a150565b6104c661103a565b60025f8273ffffffffffffffffffffffffffffffffffffffff1673ffffffffffffffffffffffffffffffffffffffff1681526020019081526020015f205f9054906101000a900460ff1661054f576040517f08c379a0000000000000000000000000000000000000000000000000000000008152600401610546906118ff565b60405180910390fd5b5f60025f8373ffffffffffffffffffffffffffffffffffffffff1673ffffffffffffffffffffffffffffffffffffffff1681526020019081526020015f205f6101000a81548160ff0219169083151502179055507faf66545c919a3be306ee446d8f42a9558b5b022620df880517bc9593ec0f2d52816040516105d29190611524565b60405180910390a150565b6105e561103a565b6105ee5f6110c1565b565b6002602052805f5260405f205f915054906101000a900460ff1681565b5f60608060608060605f805f8060018b60405161062a91906117af565b9081526020016040518091039020604051806101000160405290815f820180546106539061194a565b80601f016020809104026020016040519081016040528092919081815260200182805461067f9061194a565b80156106ca5780601f106106a1576101008083540402835291602001916106ca565b820191905f5260205f20905b8154815290600101906020018083116106ad57829003601f168201915b50505050508152602001600182015f9054906101000a900473ffffffffffffffffffffffffffffffffffffffff1673ffffffffffffffffffffffffffffffffffffffff1673ffffffffffffffffffffffffffffffffffffffff1681526020016001820160149054906101000a900460ff161515151581526020016002820154815260200160038201805461075d9061194a565b80601f01602080910402602001604051908101604052809291908181526020018280546107899061194a565b80156107d45780601f106107ab576101008083540402835291602001916107d4565b820191905f5260205f20905b8154815290600101906020018083116107b757829003601f168201915b505050505081526020016004820180546107ed9061194a565b80601f01602080910402602001604051908101604052809291908181526020018280546108199061194a565b80156108645780601f1061083b57610100808354040283529160200191610864565b820191905f5260205f20905b81548152906001019060200180831161084757829003601f168201915b5050505050815260200160058201805461087d9061194a565b80601f01602080910402602001604051908101604052809291908181526020018280546108a99061194a565b80156108f45780601f106108cb576101008083540402835291602001916108f4565b820191905f5260205f20905b8154815290600101906020018083116108d757829003601f168201915b5050505050815260200160068201805461090d9061194a565b80601f01602080910402602001604051908101604052809291908181526020018280546109399061194a565b80156109845780601f1061095b57610100808354040283529160200191610984565b820191905f5260205f20905b81548152906001019060200180831161096757829003601f168201915b50505050508152505090505f815f0151511199508981608001518260a001518360c001518460e00151855f0151866020015187604001518860600151995099509950995099509950995099509950509193959799909294969850565b5f805f9054906101000a900473ffffffffffffffffffffffffffffffffffffffff16905090565b6001818051602081018201805184825260208301602085012081835280955050505050505f91509050805f018054610a3e9061194a565b80601f0160208091040260200160405190810160405280929190818152602001828054610a6a9061194a565b8015610ab55780601f10610a8c57610100808354040283529160200191610ab5565b820191905f5260205f20905b815481529060010190602001808311610a9857829003601f168201915b505050505090806001015f9054906101000a900473ffffffffffffffffffffffffffffffffffffffff16908060010160149054906101000a900460ff1690806002015490806003018054610b089061194a565b80601f0160208091040260200160405190810160405280929190818152602001828054610b349061194a565b8015610b7f5780601f10610b5657610100808354040283529160200191610b7f565b820191905f5260205f20905b815481529060010190602001808311610b6257829003601f168201915b505050505090806004018054610b949061194a565b80601f0160208091040260200160405190810160405280929190818152602001828054610bc09061194a565b8015610c0b5780601f10610be257610100808354040283529160200191610c0b565b820191905f5260205f20905b815481529060010190602001808311610bee57829003601f168201915b505050505090806005018054610c209061194a565b80601f0160208091040260200160405190810160405280929190818152602001828054610c4c9061194a565b8015610c975780601f10610c6e57610100808354040283529160200191610c97565b820191905f5260205f20905b815481529060010190602001808311610c7a57829003601f168201915b505050505090806006018054610cac9061194a565b80601f0160208091040260200160405190810160405280929190818152602001828054610cd89061194a565b8015610d235780601f10610cfa57610100808354040283529160200191610d23565b820191905f5260205f20905b815481529060010190602001808311610d0657829003601f168201915b5050505050905088565b60025f3373ffffffffffffffffffffffffffffffffffffffff1673ffffffffffffffffffffffffffffffffffffffff1681526020019081526020015f205f9054906101000a900460ff16610db6576040517f08c379a0000000000000000000000000000000000000000000000000000000008152600401610dad90611757565b60405180910390fd5b5f600187604051610dc791906117af565b90815260200160405180910390205f018054610de29061194a565b905014610e24576040517f08c379a0000000000000000000000000000000000000000000000000000000008152600401610e1b906119c4565b60405180910390fd5b6040518061010001604052808681526020013373ffffffffffffffffffffffffffffffffffffffff1681526020015f1515815260200142815260200185815260200184815260200183815260200182815250600187604051610e8691906117af565b90815260200160405180910390205f820151815f019081610ea79190611b7f565b506020820151816001015f6101000a81548173ffffffffffffffffffffffffffffffffffffffff021916908373ffffffffffffffffffffffffffffffffffffffff16021790555060408201518160010160146101000a81548160ff021916908315150217905550606082015181600201556080820151816003019081610f2d9190611b7f565b5060a0820151816004019081610f439190611b7f565b5060c0820151816005019081610f599190611b7f565b5060e0820151816006019081610f6f9190611b7f565b509050507f03f262da71aacb4fd3ac953d335e55d4e2ea91176b1a20485c500341130b10e0868633604051610fa693929190611c4e565b60405180910390a1505050505050565b610fbe61103a565b5f73ffffffffffffffffffffffffffffffffffffffff168173ffffffffffffffffffffffffffffffffffffffff160361102e575f6040517f1e4fbdf70000000000000000000000000000000000000000000000000000000081526004016110259190611524565b60405180910390fd5b611037816110c1565b50565b611042611182565b73ffffffffffffffffffffffffffffffffffffffff166110606109e0565b73ffffffffffffffffffffffffffffffffffffffff16146110bf57611083611182565b6040517f118cdaa70000000000000000000000000000000000000000000000000000000081526004016110b69190611524565b60405180910390fd5b565b5f805f9054906101000a900473ffffffffffffffffffffffffffffffffffffffff169050815f806101000a81548173ffffffffffffffffffffffffffffffffffffffff021916908373ffffffffffffffffffffffffffffffffffffffff1602179055508173ffffffffffffffffffffffffffffffffffffffff168173ffffffffffffffffffffffffffffffffffffffff167f8be0079c531659141344cd1fd0a4f28419497f9722a3daafe3b4186f6b6457e060405160405180910390a35050565b5f33905090565b5f604051905090565b5f80fd5b5f80fd5b5f80fd5b5f80fd5b5f601f19601f8301169050919050565b7f4e487b71000000000000000000000000000000000000000000000000000000005f52604160045260245ffd5b6111e8826111a2565b810181811067ffffffffffffffff82111715611207576112066111b2565b5b80604052505050565b5f611219611189565b905061122582826111df565b919050565b5f67ffffffffffffffff821115611244576112436111b2565b5b61124d826111a2565b9050602081019050919050565b828183375f83830152505050565b5f61127a6112758461122a565b611210565b9050828152602081018484840111156112965761129561119e565b5b6112a184828561125a565b509392505050565b5f82601f8301126112bd576112bc61119a565b5b81356112cd848260208601611268565b91505092915050565b5f602082840312156112eb576112ea611192565b5b5f82013567ffffffffffffffff81111561130857611307611196565b5b611314848285016112a9565b91505092915050565b5f73ffffffffffffffffffffffffffffffffffffffff82169050919050565b5f6113468261131d565b9050919050565b6113568161133c565b8114611360575f80fd5b50565b5f813590506113718161134d565b92915050565b5f6020828403121561138c5761138b611192565b5b5f61139984828501611363565b91505092915050565b5f8115159050919050565b6113b6816113a2565b82525050565b5f6020820190506113cf5f8301846113ad565b92915050565b5f81519050919050565b5f82825260208201905092915050565b5f5b8381101561140c5780820151818401526020810190506113f1565b5f8484015250505050565b5f611421826113d5565b61142b81856113df565b935061143b8185602086016113ef565b611444816111a2565b840191505092915050565b6114588161133c565b82525050565b5f819050919050565b6114708161145e565b82525050565b5f6101208201905061148a5f83018c6113ad565b818103602083015261149c818b611417565b905081810360408301526114b0818a611417565b905081810360608301526114c48189611417565b905081810360808301526114d88188611417565b905081810360a08301526114ec8187611417565b90506114fb60c083018661144f565b61150860e08301856113ad565b611516610100830184611467565b9a9950505050505050505050565b5f6020820190506115375f83018461144f565b92915050565b5f610100820190508181035f830152611556818b611417565b9050611565602083018a61144f565b61157260408301896113ad565b61157f6060830188611467565b81810360808301526115918187611417565b905081810360a08301526115a58186611417565b905081810360c08301526115b98185611417565b905081810360e08301526115cd8184611417565b90509998505050505050505050565b5f805f805f8060c087890312156115f6576115f5611192565b5b5f87013567ffffffffffffffff81111561161357611612611196565b5b61161f89828a016112a9565b965050602087013567ffffffffffffffff8111156116405761163f611196565b5b61164c89828a016112a9565b955050604087013567ffffffffffffffff81111561166d5761166c611196565b5b61167989828a016112a9565b945050606087013567ffffffffffffffff81111561169a57611699611196565b5b6116a689828a016112a9565b935050608087013567ffffffffffffffff8111156116c7576116c6611196565b5b6116d389828a016112a9565b92505060a087013567ffffffffffffffff8111156116f4576116f3611196565b5b61170089828a016112a9565b9150509295509295509295565b7f4e6f7420617574686f72697a65642069737375657200000000000000000000005f82015250565b5f6117416015836113df565b915061174c8261170d565b602082019050919050565b5f6020820190508181035f83015261176e81611735565b9050919050565b5f81905092915050565b5f611789826113d5565b6117938185611775565b93506117a38185602086016113ef565b80840191505092915050565b5f6117ba828461177f565b915081905092915050565b7f4f6e6c79206973737565722063616e207265766f6b65000000000000000000005f82015250565b5f6117f96016836113df565b9150611804826117c5565b602082019050919050565b5f6020820190508181035f830152611826816117ed565b9050919050565b5f6020820190508181035f8301526118458184611417565b905092915050565b7f416c726561647920616e206973737565720000000000000000000000000000005f82015250565b5f6118816011836113df565b915061188c8261184d565b602082019050919050565b5f6020820190508181035f8301526118ae81611875565b9050919050565b7f4e6f7420616e20697373756572000000000000000000000000000000000000005f82015250565b5f6118e9600d836113df565b91506118f4826118b5565b602082019050919050565b5f6020820190508181035f830152611916816118dd565b9050919050565b7f4e487b71000000000000000000000000000000000000000000000000000000005f52602260045260245ffd5b5f600282049050600182168061196157607f821691505b6020821081036119745761197361191d565b5b50919050565b7f436572746966696361746520616c7265616479206578697374730000000000005f82015250565b5f6119ae601a836113df565b91506119b98261197a565b602082019050919050565b5f6020820190508181035f8301526119db816119a2565b9050919050565b5f819050815f5260205f209050919050565b5f6020601f8301049050919050565b5f82821b905092915050565b5f60088302611a3e7fffffffffffffffffffffffffffffffffffffffffffffffffffffffffffffffff82611a03565b611a488683611a03565b95508019841693508086168417925050509392505050565b5f819050919050565b5f611a83611a7e611a798461145e565b611a60565b61145e565b9050919050565b5f819050919050565b611a9c83611a69565b611ab0611aa882611a8a565b848454611a0f565b825550505050565b5f90565b611ac4611ab8565b611acf818484611a93565b505050565b5b81811015611af257611ae75f82611abc565b600181019050611ad5565b5050565b601f821115611b3757611b08816119e2565b611b11846119f4565b81016020851015611b20578190505b611b34611b2c856119f4565b830182611ad4565b50505b505050565b5f82821c905092915050565b5f611b575f1984600802611b3c565b1980831691505092915050565b5f611b6f8383611b48565b9150826002028217905092915050565b611b88826113d5565b67ffffffffffffffff811115611ba157611ba06111b2565b5b611bab825461194a565b611bb6828285611af6565b5f60209050601f831160018114611be7575f8415611bd5578287015190505b611bdf8582611b64565b865550611c46565b601f198416611bf5866119e2565b5f5b82811015611c1c57848901518255600182019150602085019450602081019050611bf7565b86831015611c395784890151611c35601f891682611b48565b8355505b6001600288020188555050505b505050505050565b5f6060820190508181035f830152611c668186611417565b90508181036020830152611c7a8185611417565b9050611c89604083018461144f565b94935050505056fea26469706673582212201a92e7b3908da635ce16e43c105cb5d3acc5f536ff0b9d3fe3c5a2e40ea00f5564736f6c63430008150033",
  "immutableReferences": {},
  "source": "// SPDX-License-Identifier: MIT\r\npragma solidity ^0.8.0;\r\n\r\nimport \"@openzeppelin/contracts/access/Ownable.sol\";\r\n\r\ncontract CertificateRegistry is Ownable {\r\n    struct Certificate {\r\n        string cid;\r\n        address issuer;\r\n        bool revoked;\r\n        uint256 issuedAt;\r\n        string uid;\r\n        string candidateName;\r\n        string courseName;\r\n        string organization;\r\n    }\r\n\r\n    mapping(string => Certificate) public certificates;\r\n    mapping(address => bool) public isIssuer;\r\n\r\n    event CertificateIssued(string certificateId, string cid, address issuer);\r\n    event CertificateRevoked(string certificateId);\r\n    event IssuerAdded(address issuer);\r\n    event IssuerRemoved(address issuer);\r\n\r\n    // Modifier to restrict to authorized issuers\r\n    modifier onlyIssuer() {\r\n        require(isIssuer[msg.sender], \"Not authorized issuer\");\r\n        _;\r\n    }\r\n\r\n    // Constructor to initialize owner and add initial issuer\r\n    constructor(address initialOwner) Ownable(initialOwner) {\r\n        isIssuer[initialOwner] = true;\r\n    }\r\n\r\n    // Add a new issuer (onlyOwner)\r\n    function addIssuer(address newIssuer) public onlyOwner {\r\n        require(!isIssuer[newIssuer], \"Already an issuer\");\r\n        isIssuer[newIssuer] = true;\r\n        emit IssuerAdded(newIssuer);\r\n    }\r\n\r\n    // Remove an issuer (onlyOwner)\r\n    function removeIssuer(address issuer) public onlyOwner {\r\n        require(isIssuer[issuer], \"Not an issuer\");\r\n        isIssuer[issuer] = false;\r\n        emit IssuerRemoved(issuer);\r\n    }\r\n\r\n    // Issue a new certificate\r\n    function issueCertificate(\r\n        string memory certificateId,\r\n        string memory cid,\r\n        string memory uid,\r\n        string memory candidateName,\r\n        string memory courseName,\r\n        string memory organization\r\n    ) public onlyIssuer {\r\n        require(bytes(certificates[certificateId].cid).length == 0, \"Certificate already exists\");\r\n\r\n        certificates[certificateId] = Certificate({\r\n            cid: cid,\r\n            issuer: msg.sender,\r\n            revoked: false,\r\n            issuedAt: block.timestamp,\r\n            uid: uid,\r\n            candidateName: candidateName,\r\n            courseName: courseName,\r\n            organization: organization\r\n        });\r\n\r\n        emit CertificateIssued(certificateId, cid, msg.sender);\r\n    }\r\n\r\n    // Revoke an existing certificate\r\n    function revokeCertificate(string memory certificateId) public onlyIssuer {\r\n        require(certificates[certificateId].issuer == msg.sender, \"Only issuer can revoke\");\r\n        certificates[certificateId].revoked = true;\r\n        emit CertificateRevoked(certificateId);\r\n    }\r\n\r\n    // Verify a certificate\r\n    function verifyCertificate(string memory certificateId) public view returns (\r\n        bool exists,\r\n        string memory uid,\r\n        string memory candidateName,\r\n        string memory courseName,\r\n        string memory organization,\r\n        string memory cid,\r\n        address issuer,\r\n        bool revoked,\r\n        uint256 issuedAt\r\n    ) {\r\n        Certificate memory cert = certificates[certificateId];\r\n        exists = bytes(cert.cid).length > 0;\r\n\r\n        return (\r\n            exists,\r\n            cert.uid,\r\n            cert.candidateName,\r\n            cert.courseName,\r\n            cert.organization,\r\n            cert.cid,\r\n            cert.issuer,\r\n            cert.revoked,\r\n            cert.issuedAt\r\n        );\r\n    }\r\n}\r\n",
  "sourcePath": "D:\\University\\GP\\Certificate-Verification-Using-Block-Chain-Technology\\contracts\\CertificateRegistry.sol",
  "compiler": {
    "name": "solc",
    "version": "0.8.21+commit.d9974bed.Emscripten.clang"
  },
  "schemaVersion": "3.4.16",
  "updatedAt": "2025-06-29T16:49:26.223Z",
  "networkType": "ethereum",
  "devdoc": {
    "errors": {
      "OwnableInvalidOwner(address)": [
        {
          "details": "The owner is not a valid owner account. (eg. `address(0)`)"
        }
      ],
      "OwnableUnauthorizedAccount(address)": [
        {
          "details": "The caller account is not authorized to perform an operation."
        }
      ]
    },
    "kind": "dev",
    "methods": {
      "owner()": {
        "details": "Returns the address of the current owner."
      },
      "renounceOwnership()": {
        "details": "Leaves the contract without owner. It will not be possible to call `onlyOwner` functions. Can only be called by the current owner. NOTE: Renouncing ownership will leave the contract without an owner, thereby disabling any functionality that is only available to the owner."
      },
      "transferOwnership(address)": {
        "details": "Transfers ownership of the contract to a new account (`newOwner`). Can only be called by the current owner."
      }
    },
    "version": 1
  },
  "userdoc": {
    "kind": "user",
    "methods": {},
    "version": 1
  }
}