{
  "contractName": "CertificateRegistry",
  "abi": [
    {
      "inputs": [
        {
          "internalType": "address",
          "name": "initialOwner",
          "type": "address"
        }
      ],
      "stateMutability": "nonpayable",
      "type": "constructor"
    },
    {
      "inputs": [
        {
          "internalType": "address",
          "name": "owner",
          "type": "address"
        }
      ],
      "name": "OwnableInvalidOwner",
      "type": "error"
    },
    {
      "inputs": [
        {
          "internalType": "address",
          "name": "account",
          "type": "address"
        }
      ],
      "name": "OwnableUnauthorizedAccount",
      "type": "error"
    },
    {
      "anonymous": false,
      "inputs": [
        {
          "indexed": false,
          "internalType": "string",
          "name": "certificateId",
          "type": "string"
        },
        {
          "indexed": false,
          "internalType": "string",
          "name": "cid",
          "type": "string"
        },
        {
          "indexed": false,
          "internalType": "address",
          "name": "issuer",
          "type": "address"
        }
      ],
      "name": "CertificateIssued",
      "type": "event"
    },
    {
      "anonymous": false,
      "inputs": [
        {
          "indexed": false,
          "internalType": "string",
          "name": "certificateId",
          "type": "string"
        }
      ],
      "name": "CertificateRevoked",
      "type": "event"
    },
    {
      "anonymous": false,
      "inputs": [
        {
          "indexed": true,
          "internalType": "address",
          "name": "previousOwner",
          "type": "address"
        },
        {
          "indexed": true,
          "internalType": "address",
          "name": "newOwner",
          "type": "address"
        }
      ],
      "name": "OwnershipTransferred",
      "type": "event"
    },
    {
      "inputs": [
        {
          "internalType": "string",
          "name": "",
          "type": "string"
        }
      ],
      "name": "certificates",
      "outputs": [
        {
          "internalType": "string",
          "name": "cid",
          "type": "string"
        },
        {
          "internalType": "address",
          "name": "issuer",
          "type": "address"
        },
        {
          "internalType": "bool",
          "name": "revoked",
          "type": "bool"
        }
      ],
      "stateMutability": "view",
      "type": "function",
      "constant": true
    },
    {
      "inputs": [],
      "name": "owner",
      "outputs": [
        {
          "internalType": "address",
          "name": "",
          "type": "address"
        }
      ],
      "stateMutability": "view",
      "type": "function",
      "constant": true
    },
    {
      "inputs": [],
      "name": "renounceOwnership",
      "outputs": [],
      "stateMutability": "nonpayable",
      "type": "function"
    },
    {
      "inputs": [
        {
          "internalType": "address",
          "name": "newOwner",
          "type": "address"
        }
      ],
      "name": "transferOwnership",
      "outputs": [],
      "stateMutability": "nonpayable",
      "type": "function"
    },
    {
      "inputs": [
        {
          "internalType": "string",
          "name": "certificateId",
          "type": "string"
        },
        {
          "internalType": "string",
          "name": "cid",
          "type": "string"
        }
      ],
      "name": "issueCertificate",
      "outputs": [],
      "stateMutability": "nonpayable",
      "type": "function"
    },
    {
      "inputs": [
        {
          "internalType": "string",
          "name": "certificateId",
          "type": "string"
        }
      ],
      "name": "revokeCertificate",
      "outputs": [],
      "stateMutability": "nonpayable",
      "type": "function"
    },
    {
      "inputs": [
        {
          "internalType": "string",
          "name": "certificateId",
          "type": "string"
        }
      ],
      "name": "verifyCertificate",
      "outputs": [
        {
          "internalType": "bool",
          "name": "",
          "type": "bool"
        },
        {
          "internalType": "address",
          "name": "",
          "type": "address"
        },
        {
          "internalType": "bool",
          "name": "",
          "type": "bool"
        }
      ],
      "stateMutability": "view",
      "type": "function",
      "constant": true
    }
  ],
  "bytecode": "0x608060405234801562000010575f80fd5b50604051620012ef380380620012ef8339818101604052810190620000369190620001e9565b805f73ffffffffffffffffffffffffffffffffffffffff168173ffffffffffffffffffffffffffffffffffffffff1603620000aa575f6040517f1e4fbdf7000000000000000000000000000000000000000000000000000000008152600401620000a191906200022a565b60405180910390fd5b620000bb81620000c360201b60201c565b505062000245565b5f805f9054906101000a900473ffffffffffffffffffffffffffffffffffffffff169050815f806101000a81548173ffffffffffffffffffffffffffffffffffffffff021916908373ffffffffffffffffffffffffffffffffffffffff1602179055508173ffffffffffffffffffffffffffffffffffffffff168173ffffffffffffffffffffffffffffffffffffffff167f8be0079c531659141344cd1fd0a4f28419497f9722a3daafe3b4186f6b6457e060405160405180910390a35050565b5f80fd5b5f73ffffffffffffffffffffffffffffffffffffffff82169050919050565b5f620001b38262000188565b9050919050565b620001c581620001a7565b8114620001d0575f80fd5b50565b5f81519050620001e381620001ba565b92915050565b5f6020828403121562000201576200020062000184565b5b5f6200021084828501620001d3565b91505092915050565b6200022481620001a7565b82525050565b5f6020820190506200023f5f83018462000219565b92915050565b61109c80620002535f395ff3fe608060405234801561000f575f80fd5b506004361061007b575f3560e01c80638b23d875116100595780638b23d875146100c15780638da5cb5b146100f35780638f2b91ea14610111578063f2fde38b146101435761007b565b8063142e15421461007f578063211bbe711461009b578063715018a6146100b7575b5f80fd5b610099600480360381019061009491906109a2565b61015f565b005b6100b560048036038101906100b091906109e9565b610288565b005b6100bf61040b565b005b6100db60048036038101906100d691906109a2565b61041e565b6040516100ea93929190610ab8565b60405180910390f35b6100fb61056b565b6040516101089190610aed565b60405180910390f35b61012b600480360381019061012691906109a2565b610592565b60405161013a93929190610b80565b60405180910390f35b61015d60048036038101906101589190610be6565b610682565b005b610167610706565b3373ffffffffffffffffffffffffffffffffffffffff1660018260405161018e9190610c4b565b90815260200160405180910390206001015f9054906101000a900473ffffffffffffffffffffffffffffffffffffffff1673ffffffffffffffffffffffffffffffffffffffff1614610215576040517f08c379a000000000000000000000000000000000000000000000000000000000815260040161020c90610cab565b60405180910390fd5b600180826040516102269190610c4b565b908152602001604051809103902060010160146101000a81548160ff0219169083151502179055507f266095b5af7e2323760fef151f1d78896740cd2cc1b73a6357ff9e4c3fdae7408160405161027d9190610cc9565b60405180910390a150565b610290610706565b5f6001836040516102a19190610c4b565b90815260200160405180910390205f0180546102bc90610d16565b9050146102fe576040517f08c379a00000000000000000000000000000000000000000000000000000000081526004016102f590610d90565b60405180910390fd5b60405180606001604052808281526020013373ffffffffffffffffffffffffffffffffffffffff1681526020015f15158152506001836040516103419190610c4b565b90815260200160405180910390205f820151815f0190816103629190610f54565b506020820151816001015f6101000a81548173ffffffffffffffffffffffffffffffffffffffff021916908373ffffffffffffffffffffffffffffffffffffffff16021790555060408201518160010160146101000a81548160ff0219169083151502179055509050507f03f262da71aacb4fd3ac953d335e55d4e2ea91176b1a20485c500341130b10e08282336040516103ff93929190611023565b60405180910390a15050565b610413610706565b61041c5f61078d565b565b5f805f806001856040516104329190610c4b565b90815260200160405180910390206040518060600160405290815f8201805461045a90610d16565b80601f016020809104026020016040519081016040528092919081815260200182805461048690610d16565b80156104d15780601f106104a8576101008083540402835291602001916104d1565b820191905f5260205f20905b8154815290600101906020018083116104b457829003601f168201915b50505050508152602001600182015f9054906101000a900473ffffffffffffffffffffffffffffffffffffffff1673ffffffffffffffffffffffffffffffffffffffff1673ffffffffffffffffffffffffffffffffffffffff1681526020016001820160149054906101000a900460ff16151515158152505090505f815f0151511181602001518260400151935093509350509193909250565b5f805f9054906101000a900473ffffffffffffffffffffffffffffffffffffffff16905090565b6001818051602081018201805184825260208301602085012081835280955050505050505f91509050805f0180546105c990610d16565b80601f01602080910402602001604051908101604052809291908181526020018280546105f590610d16565b80156106405780601f1061061757610100808354040283529160200191610640565b820191905f5260205f20905b81548152906001019060200180831161062357829003601f168201915b505050505090806001015f9054906101000a900473ffffffffffffffffffffffffffffffffffffffff16908060010160149054906101000a900460ff16905083565b61068a610706565b5f73ffffffffffffffffffffffffffffffffffffffff168173ffffffffffffffffffffffffffffffffffffffff16036106fa575f6040517f1e4fbdf70000000000000000000000000000000000000000000000000000000081526004016106f19190610aed565b60405180910390fd5b6107038161078d565b50565b61070e61084e565b73ffffffffffffffffffffffffffffffffffffffff1661072c61056b565b73ffffffffffffffffffffffffffffffffffffffff161461078b5761074f61084e565b6040517f118cdaa70000000000000000000000000000000000000000000000000000000081526004016107829190610aed565b60405180910390fd5b565b5f805f9054906101000a900473ffffffffffffffffffffffffffffffffffffffff169050815f806101000a81548173ffffffffffffffffffffffffffffffffffffffff021916908373ffffffffffffffffffffffffffffffffffffffff1602179055508173ffffffffffffffffffffffffffffffffffffffff168173ffffffffffffffffffffffffffffffffffffffff167f8be0079c531659141344cd1fd0a4f28419497f9722a3daafe3b4186f6b6457e060405160405180910390a35050565b5f33905090565b5f604051905090565b5f80fd5b5f80fd5b5f80fd5b5f80fd5b5f601f19601f8301169050919050565b7f4e487b71000000000000000000000000000000000000000000000000000000005f52604160045260245ffd5b6108b48261086e565b810181811067ffffffffffffffff821117156108d3576108d261087e565b5b80604052505050565b5f6108e5610855565b90506108f182826108ab565b919050565b5f67ffffffffffffffff8211156109105761090f61087e565b5b6109198261086e565b9050602081019050919050565b828183375f83830152505050565b5f610946610941846108f6565b6108dc565b9050828152602081018484840111156109625761096161086a565b5b61096d848285610926565b509392505050565b5f82601f83011261098957610988610866565b5b8135610999848260208601610934565b91505092915050565b5f602082840312156109b7576109b661085e565b5b5f82013567ffffffffffffffff8111156109d4576109d3610862565b5b6109e084828501610975565b91505092915050565b5f80604083850312156109ff576109fe61085e565b5b5f83013567ffffffffffffffff811115610a1c57610a1b610862565b5b610a2885828601610975565b925050602083013567ffffffffffffffff811115610a4957610a48610862565b5b610a5585828601610975565b9150509250929050565b5f8115159050919050565b610a7381610a5f565b82525050565b5f73ffffffffffffffffffffffffffffffffffffffff82169050919050565b5f610aa282610a79565b9050919050565b610ab281610a98565b82525050565b5f606082019050610acb5f830186610a6a565b610ad86020830185610aa9565b610ae56040830184610a6a565b949350505050565b5f602082019050610b005f830184610aa9565b92915050565b5f81519050919050565b5f82825260208201905092915050565b5f5b83811015610b3d578082015181840152602081019050610b22565b5f8484015250505050565b5f610b5282610b06565b610b5c8185610b10565b9350610b6c818560208601610b20565b610b758161086e565b840191505092915050565b5f6060820190508181035f830152610b988186610b48565b9050610ba76020830185610aa9565b610bb46040830184610a6a565b949350505050565b610bc581610a98565b8114610bcf575f80fd5b50565b5f81359050610be081610bbc565b92915050565b5f60208284031215610bfb57610bfa61085e565b5b5f610c0884828501610bd2565b91505092915050565b5f81905092915050565b5f610c2582610b06565b610c2f8185610c11565b9350610c3f818560208601610b20565b80840191505092915050565b5f610c568284610c1b565b915081905092915050565b7f4f6e6c79206973737565722063616e207265766f6b65000000000000000000005f82015250565b5f610c95601683610b10565b9150610ca082610c61565b602082019050919050565b5f6020820190508181035f830152610cc281610c89565b9050919050565b5f6020820190508181035f830152610ce18184610b48565b905092915050565b7f4e487b71000000000000000000000000000000000000000000000000000000005f52602260045260245ffd5b5f6002820490506001821680610d2d57607f821691505b602082108103610d4057610d3f610ce9565b5b50919050565b7f436572746966696361746520616c7265616479206578697374730000000000005f82015250565b5f610d7a601a83610b10565b9150610d8582610d46565b602082019050919050565b5f6020820190508181035f830152610da781610d6e565b9050919050565b5f819050815f5260205f209050919050565b5f6020601f8301049050919050565b5f82821b905092915050565b5f60088302610e0a7fffffffffffffffffffffffffffffffffffffffffffffffffffffffffffffffff82610dcf565b610e148683610dcf565b95508019841693508086168417925050509392505050565b5f819050919050565b5f819050919050565b5f610e58610e53610e4e84610e2c565b610e35565b610e2c565b9050919050565b5f819050919050565b610e7183610e3e565b610e85610e7d82610e5f565b848454610ddb565b825550505050565b5f90565b610e99610e8d565b610ea4818484610e68565b505050565b5b81811015610ec757610ebc5f82610e91565b600181019050610eaa565b5050565b601f821115610f0c57610edd81610dae565b610ee684610dc0565b81016020851015610ef5578190505b610f09610f0185610dc0565b830182610ea9565b50505b505050565b5f82821c905092915050565b5f610f2c5f1984600802610f11565b1980831691505092915050565b5f610f448383610f1d565b9150826002028217905092915050565b610f5d82610b06565b67ffffffffffffffff811115610f7657610f7561087e565b5b610f808254610d16565b610f8b828285610ecb565b5f60209050601f831160018114610fbc575f8415610faa578287015190505b610fb48582610f39565b86555061101b565b601f198416610fca86610dae565b5f5b82811015610ff157848901518255600182019150602085019450602081019050610fcc565b8683101561100e578489015161100a601f891682610f1d565b8355505b6001600288020188555050505b505050505050565b5f6060820190508181035f83015261103b8186610b48565b9050818103602083015261104f8185610b48565b905061105e6040830184610aa9565b94935050505056fea2646970667358221220f5b1c5780bcd4250bb08e50b176329fa9a94134a01b7264afc82798c7dd51d2b64736f6c63430008150033",
  "immutableReferences": {},
  "source": "// SPDX-License-Identifier: MIT\npragma solidity ^0.8.0;\n\nimport \"@openzeppelin/contracts/access/Ownable.sol\";\n\ncontract CertificateRegistry is Ownable {\n    struct Certificate {\n        string cid; // IPFS Content Identifier\n        address issuer;\n        bool revoked;\n    }\n\n    mapping(string => Certificate) public certificates;\n\n    event CertificateIssued(string certificateId, string cid, address issuer);\n    event CertificateRevoked(string certificateId);\n\n    // Constructor to initialize Ownable with an initial owner\n    constructor(address initialOwner) Ownable(initialOwner) {\n    }\n\n    // Issue a new certificate\n    function issueCertificate(string memory certificateId, string memory cid) public onlyOwner {\n        require(bytes(certificates[certificateId].cid).length == 0, \"Certificate already exists\");\n        certificates[certificateId] = Certificate(cid, msg.sender, false);\n        emit CertificateIssued(certificateId, cid, msg.sender);\n    }\n\n    // Revoke an existing certificate\n    function revokeCertificate(string memory certificateId) public onlyOwner {\n        require(certificates[certificateId].issuer == msg.sender, \"Only issuer can revoke\");\n        certificates[certificateId].revoked = true;\n        emit CertificateRevoked(certificateId);\n    }\n\n    // Verify a certificate\n    function verifyCertificate(string memory certificateId) public view returns (bool, address, bool) {\n        Certificate memory cert = certificates[certificateId];\n        return (bytes(cert.cid).length > 0, cert.issuer, cert.revoked);\n    }\n}",
  "sourcePath": "/home/mostafa/cert-verification-dapp/Certificate-Verification-Using-Block-Chain-Technology/contracts/CertificateRegistry.sol",
  "compiler": {
    "name": "solc",
    "version": "0.8.21+commit.d9974bed.Emscripten.clang"
  },
  "schemaVersion": "3.4.16",
  "updatedAt": "2025-05-02T20:16:30.783Z",
  "networkType": "ethereum",
  "devdoc": {
    "errors": {
      "OwnableInvalidOwner(address)": [
        {
          "details": "The owner is not a valid owner account. (eg. `address(0)`)"
        }
      ],
      "OwnableUnauthorizedAccount(address)": [
        {
          "details": "The caller account is not authorized to perform an operation."
        }
      ]
    },
    "kind": "dev",
    "methods": {
      "owner()": {
        "details": "Returns the address of the current owner."
      },
      "renounceOwnership()": {
        "details": "Leaves the contract without owner. It will not be possible to call `onlyOwner` functions. Can only be called by the current owner. NOTE: Renouncing ownership will leave the contract without an owner, thereby disabling any functionality that is only available to the owner."
      },
      "transferOwnership(address)": {
        "details": "Transfers ownership of the contract to a new account (`newOwner`). Can only be called by the current owner."
      }
    },
    "version": 1
  },
  "userdoc": {
    "kind": "user",
    "methods": {},
    "version": 1
  }
}